:100000000C9462000C948A000C948A000C948A0070
:100010000C948A000C948A000C948A000C948A0038
:100020000C948A000C948A000C948A000C948A0028
:100030000C948A000C948A000C948A000C948A0018
:100040000C9408060C948A000C948A000C948A0084
:100050000C948A000C948A000C948A000C948A00F8
:100060000C948A000C948A000000000024002700F1
:100070002A0000000000250028002B0000000000DE
:1000800023002600290004040404040404040202DA
:100090000202020203030303030301020408102007
:1000A0004080010204081020010204081020000012
:1000B0000008000201000003040700000000000027
:1000C0000000DB0711241FBECFEFD8E0DEBFCDBF9D
:1000D00011E0A0E0B1E0E0ECF0E102C005900D928B
:1000E000AE32B107D9F721E0AEE2B1E001C01D9216
:1000F000A637B207E1F710E0C2E6D0E004C02197CE
:10010000FE010E945808C136D107C9F70E94520665
:100110000C945E080C940000AF92BF92CF92DF92D5
:10012000EF92FF920F931F93CF93DF936C017B01AC
:100130008B01040F151FEB015E01AE18BF08C0173D
:10014000D10759F06991D601ED91FC910190F081B0
:10015000E02DC6010995892B79F7C501DF91CF9173
:100160001F910F91FF90EF90DF90CF90BF90AF90D5
:100170000895833081F028F4813099F08230A9F01D
:1001800008958730A9F08830C9F08430B1F48091A7
:1001900080008F7D03C0809180008F7780938000E6
:1001A000089584B58F7784BD089584B58F7DFBCF86
:1001B0008091B0008F778093B00008958091B00057
:1001C0008F7DF9CFCF93DF93282F30E0F901E255EF
:1001D000FF4F8491F901E656FF4FD491F901EA5798
:1001E000FF4FC491CC23A1F081110E94B900EC2FE4
:1001F000F0E0EE0FFF1FE458FF4FA591B491EC9192
:10020000ED2381E090E009F480E0DF91CF91089543
:1002100080E090E0FACF1F93CF93DF93282F30E058
:10022000F901E255FF4F8491F901E656FF4FD49151
:10023000F901EA57FF4FC491CC23A9F0162F811181
:100240000E94B900EC2FF0E0EE0FFF1FEE58FF4FB9
:10025000A591B4918FB7F894EC91111108C0D09585
:10026000DE23DC938FBFDF91CF911F910895DE2BAA
:10027000F8CFCF93DF9390E0FC01E656FF4F249137
:100280008A579F4FFC0184918823D1F090E0880F1A
:10029000991FFC01E859FF4FA591B491FC01EE585C
:1002A000FF4FC591D49161110EC09FB7F8948C9106
:1002B000E22FE0958E238C932881E223E8839FBF71
:1002C000DF91CF9108958FB7F894EC91E22BEC93E6
:1002D0008FBFF6CF3FB7F8948091330190913401EE
:1002E000A0913501B091360126B5A89B05C02F3FDE
:1002F00019F00196A11DB11D3FBFBA2FA92F982F4C
:100300008827BC01CD01620F711D811D911D42E046
:10031000660F771F881F991F4A95D1F70895089592
:1003200090E080E00895CF93C82F0E94E2000197EB
:1003300039F480912E0190912F0181309105C1F007
:100340008C2F0E94E2008130910531F420912E0122
:1003500030912F01232B41F08C2F0E94E200892B3A
:1003600049F090E080E004C090932F0180932E012B
:10037000CF91089580912E0190912F01019789F7D7
:1003800010922F0110922E01F3CF8F929F92AF9275
:10039000BF920F931F93CF93DF93CDB7DEB7A19793
:1003A0000FB6F894DEBF0FBECDBF19A2423008F4DD
:1003B0004AE08E010F5D1F4F842E912CB12CA12C91
:1003C000A50194010E941908E62FB901CA01EA307B
:1003D00044F5E05DD801EE938D01232B242B252BD2
:1003E00079F790E080E0109769F0FD01019000201E
:1003F000E9F73197AF014A1B5B0BBD018EE591E038
:100400000E948C00A1960FB6F894DEBF0FBECDBF40
:10041000DF91CF911F910F91BF90AF909F908F90E0
:100420000895E95CD7CFFC0101900020E9F73197EE
:10043000AF01481B590BBC018EE591E00C948C0078
:10044000CF93DF93EC0160E08E810E940B0161E0AD
:100450008E810E940B0160E08E810E940B018BE86F
:1004600091E00197F1F7DF91CF910895CF92DF925C
:10047000EF92FF920F931F93CF93DF936C017C0158
:1004800087E0E80EF11CD0E0C0E0062F10E0B801D4
:100490000C2E02C0759567950A94E2F76170F7011A
:1004A00081917F010E940B012196C430D10579F71B
:1004B000C601DF91CF911F910F91FF90EF90DF90D8
:1004C000CF900C942002CF92DF92EF92FF920F9385
:1004D0001F93CF93DF93EC01F62E642F8C810E9443
:1004E0000B018D818F3F19F060E00E940B010F2DF1
:1004F00010E08F8584FF25C06E0187E0C80ED11CF7
:10050000F12CE12CB8010E2C02C0759567950A9468
:10051000E2F76170F60181916F010E940B01FFEF1C
:10052000EF1AFF0A88E0E816F10461F7CE01DF91C7
:10053000CF911F910F91FF90EF90DF90CF900C948F
:100540002002B80184E0759567958A95E1F7CE01A0
:100550000E9436026F2DCE01DF91CF911F910F9136
:10056000FF90EF90DF90CF900C94360240E0682F20
:100570008EE591E00C94630281E00E94B6028BE369
:100580009FE10197F1F70895CF93DF93823029F42B
:1005900090916D01986090936D018093710110921C
:1005A000720180E48093730180E18093740180E59F
:1005B0008093750161E0809162010E943901809110
:1005C00063018F3F19F061E00E94390161E0809181
:1005D00064010E943901CEE5D1E09E012E553140E3
:1005E00080916D0184FD0BC084E090E02196281776
:1005F000390744F461E08E810E943901EECF88E032
:1006000090E0F4CF8BE39DE00197F1F760E08091FB
:1006100062010E940B0160E0809164010E940B0165
:10062000809163018F3F19F060E00E940B0180917F
:100630006D0184FD34C063E08EE591E00E943602D6
:10064000CBE4D6E4CE010197F1F763E08EE591E0CB
:100650000E9436022197F1F763E08EE591E00E9457
:10066000360283E592E00197F1F762E08EE591E0D2
:100670000E94360280916D0180620E94B60284E081
:1006800080936E018CE00E94B6020E94BC0282E060
:1006900080936F0186E0DF91CF910C94B602806267
:1006A0000E94B6028BE496E40197F1F780916D0108
:1006B00080620E94B60283E592E00197F1F7809193
:1006C0006D0180620E94B602D5CF909171016917C9
:1006D00010F06FEF690FE62FF0E0E25AFE4F9489B9
:1006E000890F80680C94B60241E00E94630281E0A9
:1006F00090E00895CF92DF92EF92FF926B017C0120
:1007000041E06DE28EE591E00E9463026627772763
:10071000CB016C197D098E099F094AE00E94C50131
:100720000196FF90EF90DF90CF9008958F929F9267
:10073000AF92BF92EF92FF920F931F93CF93DF93ED
:100740004B012CE330E040E050E00E9419087901B1
:100750006CE3629FC001639F900D1124881A990A6F
:1007600061E08AE00E946503CAE0D0E00AE010E0A0
:10077000181419041CF0C930D105E4F0C401B80103
:100780000E9405089C01BC01990F880B990B37FF4B
:100790000DC00E947A03C401B8010E9405084B01F4
:1007A000219761E08C2F0E946503E2CF4AE00E940E
:1007B000C501F1CF8CE091E00E9413020AE010E045
:1007C000C630D105E4F0219761E08C2F0E946503CB
:1007D000C701B8010E9405089C01BC01990F880B54
:1007E000990B37FF08C00E947A03C701B8010E9425
:1007F00005087B01E5CF4AE00E94C501F6CFDF91F5
:10080000CF911F910F91FF90EF90BF90AF909F906D
:100810008F900895CF92DF92EF92FF920F931F93E4
:10082000CF93DF936B01E82EEA0160E084E00E9441
:1008300065038EE091E00E94130260E070E0CB015E
:100840000E9496031A821B821C821D821E821F82B6
:100850001886198622E0C216D10409F184E0C81670
:10086000D10421F1CD2891F48AEA95E09983888317
:100870008CE390E0A0E0B0E08A839B83AC83BD83EF
:100880000E94BC021092310110923001DF91CF9191
:100890001F910F91FF90EF90DF90CF90089587E820
:1008A00094E0998388830E94BC02F0CFC09130010C
:1008B000D0913101C431D1054CF78E2D65E00E94F5
:1008C000F9079111E3CF02E310E08AE00E94E20011
:1008D00061E0892B09F060E08AE00E940B010E9430
:1008E0006A016B017C010E946A016C197D098E0905
:1008F0009F09683E734081059105A8F301501109D5
:1009000021F72196D0933101C0933001BFCFCF9210
:10091000DF92EF92CF93DF936B01E82EEA0160E064
:1009200081E00E94650387E191E00E9413026A85DD
:100930007B858C859D850E94960384E0C816D10432
:1009400049F48AE0E81206C08AE094E0998388833B
:100950000E94BC02DF91CF91EF90DF90CF9008957D
:10096000CF92DF92EF92CF93DF936B01E82EEA01F3
:1009700060E086E00E94650382E291E00E9413023B
:100980006A817B818C819D810E94960383E0C816D9
:10099000D10441F184E0C816D104E9F182E0C8161F
:1009A000D104D1F48A859B85AC85BD854E815F815C
:1009B00068857985840F951FA61FB71F8A879B8737
:1009C000AC87BD871E821F82188619868EE395E04C
:1009D000998388830E94BC02DF91CF91EF90DF90D2
:1009E000CF9008958A859B85AC85BD854E815F81BA
:1009F00068857985840F951FA61FB71F8A879B87F7
:100A0000AC87BD871E821F82188619868AE094E013
:100A100099838883E1CF8AE0E812DECF4A815B8147
:100A20006C817D8141505109610971094A835B8361
:100A30006C837D838E819F81A885B9850196A11DD8
:100A4000B11D8E839F83A887B987452B462B472BE3
:100A500019F62AE034E0398328834A855B856C8562
:100A60007D85840F951FA61FB71F8A879B87AC873C
:100A7000BD871E821F8218861986AECFCF92DF9265
:100A8000EF92CF93DF936B01EA0160E084E00E9474
:100A9000650387E291E00E9413026A817B818C8169
:100AA0009D810E94960321E0C216D10439F180F0A5
:100AB00022E0C216D10409F441C083E0C816D10473
:100AC00009F43FC0DF91CF91EF90DF90CF90089570
:100AD0008A819B81AC81BD81CC96A11DB11D8532DF
:100AE0002AEE9207A105B10568F72AEA35E03983B5
:100AF00028838A839B83AC83BD83E4CF8A819B81D7
:100B0000AC81BD818C339105A105B10561F0CC9715
:100B1000A109B1098A839B83AC83BD838AEA95E0EE
:100B200099838883CFCF1A821B821C821D828AE020
:100B300094E0998388830E94BC02C4CF80EB94E048
:100B4000F8CF8AE094E0998388831A821B821C8202
:100B50001D82F1CFCF92DF92EF92CF93DF936B01A3
:100B6000EA0160E084E00E9465038EE091E00E946B
:100B700013026A817B818C819D810E94960321E012
:100B8000C216D10409F170F022E0C216D104A1F11D
:100B900083E0C816D10499F1DF91CF91EF90DF90F7
:100BA000CF9008958A819B81AC81BD81CC96A11D97
:100BB000B11D85322AEE9207A105B10568F78A8337
:100BC0009B83AC83BD83E8CF8A819B81AC81BD814F
:100BD0008C339105A105B10521F0CC97A109B1098C
:100BE000EECF1A821B821C821D828AE094E09983D8
:100BF00088830E94BC02D0CF80EB94E0F8CF8AE0DB
:100C000094E0998388831A821B821C821D82F1CF13
:100C10001F920F920FB60F9211242F933F938F9331
:100C20009F93AF93BF938091370190913801A0912A
:100C30003901B0913A013091320123E0230F2D3771
:100C400058F50196A11DB11D209332018093370103
:100C500090933801A0933901B0933A018091330108
:100C600090913401A0913501B09136010196A11DFA
:100C7000B11D8093330190933401A0933501B0935B
:100C80003601BF91AF919F918F913F912F910F901E
:100C90000FBE0F901F90189526E8230F0296A11DF6
:100CA000B11DD2CF789484B5826084BD84B5816053
:100CB00084BD85B5826085BD85B5816085BD809127
:100CC0006E00816080936E0010928100809181009F
:100CD0008260809381008091810081608093810097
:100CE000809180008160809380008091B100846059
:100CF0008093B1008091B00081608093B0008091BA
:100D00007A00846080937A0080917A008260809378
:100D10007A0080917A00816080937A0080917A00D5
:100D2000806880937A001092C1008AE094E09093EA
:100D3000400180933F011092490110924A011092A4
:100D40004B0110924C0160E089E00E94390160E0A3
:100D500086E00E94390160E088E00E94390161E08C
:100D60008AE00E94390182E00E94C4020E94BC0213
:100D700060E080E00E94650380E0482E80E0582E0D
:100D8000C2E0D0E093E0892E912C24E0622E712CF9
:100D9000332433948FB7F894409137015091380140
:100DA0006091390170913A018FBF9A01AB0160E007
:100DB00070E080E090E0A0905601B0905701C090A4
:100DC0005801D0905901E0905A01F0905B010091D8
:100DD0005C0110915D010E943B082B3231404105BE
:100DE0005105610571058105910509F008F492C06E
:100DF00086E090E00E9493017C01909355018093DE
:100E0000540189E090E00E9493018C01909353017A
:100E10008093520188E090E00E94930190935101E9
:100E200080935001EA94EF28A1F40130110589F470
:100E300090924E0180924D0160914D0170914E0152
:100E400080914F01E0913F01F09140014FE351E06B
:100E500009958091540190915501019789F4109260
:100E60004E0110924D0160914D0170914E018091A3
:100E70004F01E0913F01F09140014FE351E00995AE
:100E800080915201909153018130910589F49093A2
:100E90004E0180934D0160914D0170914E01809102
:100EA0004F01E0913F01F09140014FE351E009957E
:100EB0008091500190915101019789F4D0934E0196
:100EC000C0934D0160914D0170914E0180914F0191
:100ED000E0913F01F09140014FE351E009958FB758
:100EE000F894009137011091380120913901309127
:100EF0003A018FBF00935601109357012093580178
:100F00003093590110925A0110925B0110925C01CA
:100F100010925D012FB7F8948091370190913801BC
:100F2000A0913901B0913A012FBF40913B015091FE
:100F30003C0160913D0170913E01841B950BA60B15
:100F4000B70B84369105A105B10558F180914F0189
:100F50008F5F8B3068F580934F0170924E016092E5
:100F60004D0160914D0170914E0180914F01E091D2
:100F70003F01F09140014FE351E009952FB7F894FC
:100F80008091370190913801A0913901B0913A01D7
:100F90002FBF80933B0190933C01A0933D01B09300
:100FA0003E014114510409F4F5CE0E940000F2CE36
:100FB00030924F01D2CFEEE5F1E01382128284E04D
:100FC00091E0918380838CE084838FEF85838BE035
:100FD000868385E0878384E0808783E0818782E061
:100FE00082871386148615861686178681E00C94F0
:100FF000C402991B79E004C0991F961708F0961B4C
:10100000881F7A95C9F78095089597FB072E16F4E7
:10101000009407D077FD09D00E94440807FC05D052
:101020003EF4909581959F4F0895709561957F4FFF
:101030000895A1E21A2EAA1BBB1BFD010DC0AA1F19
:10104000BB1FEE1FFF1FA217B307E407F50720F031
:10105000A21BB30BE40BF50B661F771F881F991FAC
:101060001A9469F760957095809590959B01AC01F5
:10107000BD01CF0108952A193B094C095D096E098C
:101080007F09800B910B0895AA1BBB1B51E107C080
:10109000AA1FBB1FA617B70710F0A61BB70B881F08
:1010A000991F5A95A9F780959095BC01CD01089597
:1010B000EE0FFF1F0590F491E02D0994F894FFCFF7
:1010C0000000000074038C0090018F013A0053452A
:1010D000542054494D450050726F647563746976AD
:0E10E000652054696D6500506175736564008C
:00000001FF
